:020000040040BA
:1000000018350020BD094000BB094000BB09400075
:10001000BB094000BB094000BB09400000000000D4
:10002000000000000000000000000000BB094000CC
:10003000BB09400000000000BB094000BB094000B4
:10004000BB094000BB094000BB094000BB094000A0
:10005000BB094000BB094000BB094000BB09400090
:10006000BB094000BB09400000000000ED05400056
:100070000106400015064000BB094000BB094000D6
:100080000000000000000000BB094000BB09400068
:10009000BB094000BB094000BB094000BB09400050
:1000A000BB094000BB094000510C4000BB094000A7
:1000B000BB0940000D0C4000BB094000BB094000DB
:1000C000BB094000BB094000BB09400010B5054C0E
:1000D000237833B9044B13B10448AFF300800123F4
:1000E000237010BD3404002000000000F40F400015
:1000F0000C4B43B10C480D4910B5AFF300800C48D0
:10010000036823B910BD0A48036833B97047094B27
:10011000002BF7D0BDE810401847064B002BF5D058
:10012000184700BF00000000F40F40003804002012
:10013000F40F40000000000010B50E480E4B984729
:100140003E2100200D4B98470D4CA0470028FCD0C5
:100150000C4B98470C4A0D4B9A620D4CA047002857
:10016000FCD010200B4B98470B4B98470148024B93
:10017000984710BD000E2707790B40008D06400000
:10018000E1064000F1064000013F132000040E404C
:100190000107400029064000690A400010B54FF4ED
:1001A0000042144B5A600B20134CA0470C20A04770
:1001B0000D20A0474FF060511320104CA0474FF086
:1001C00060511420A0470E492320A0470D494C2020
:1001D000A0474FF000624FF4C0610B480B4B9847AB
:1001E0004FF080511320A0474FF080511420A047BA
:1001F00010BD00BF50140E40110740008D03400099
:100200007900002859000028000E0E40AD0440007F
:1002100030B4012404600024446040F20225C0F898
:100220002051C0F80441C0F8144145685200B1FBA8
:10023000F2F2013A120292B22B431A434260204674
:1002400030BC7047436823F0100343604368194390
:10025000416070474368D201D2B219430A434260F9
:10026000704710B44468090601F0706121430A43E5
:10027000190701F040511143416010BC704702233F
:1002800003607047012303FA01F101617047006ABE
:10029000704741627047006B70474264B1F1C05FC4
:1002A00039D013D8B1F1006F25D0B1F1805F0AD1F8
:1002B000036F13430367436F416F0B4023EA02034D
:1002C0004367426070470029FBD17047B1F1205F5E
:1002D00020D009D8B1F1005FF3D1036F1343036756
:1002E000436F13434367ECE7B1F1405F12D0B1F1C4
:1002F000605F0FD0E5E710B4016F046FD343214076
:100300001C4619400167436F416F0B402340436710
:10031000426010BC7047036F016F0B4023EA020379
:100320000367436F13434367CBE7416412F0010F48
:1003300014BF4166016612F00A0F14BF01624162E8
:1003400012F0020F07D112F0080F18BFC0F8841086
:10035000416101607047C0F88010F9E710B4019C5A
:10036000416444B9016643B1016542B94163016129
:10037000016010BC70474166F5E74165F5E7016330
:10038000F5E7C06C7047806C7047000070B582B0B4
:100390000D46430903F5001303F207735C0201F0F5
:1003A000F043B3F1005F53D00AD8B3F1805F2DD092
:1003B000B3F1C05F3BD0B3F1006F15D0002023E054
:1003C000B3F1405F55D0B3F1605F52D0B3F1205F1D
:1003D000F4D100F01F0101262A4606FA01F1204659
:1003E0002F4B984730460FE000F01F000126864053
:1003F00032464FF0006120462A4B984715F0010F16
:1004000014BF66662666012002B070BD00F01F00B2
:100410000126864032464FF080512046214B9847B6
:1004200015F0010F14BF666626660120ECE700F0A8
:100430001F000126864032464FF0C0512046194B1E
:10044000984715F0010F14BF666626660120DBE7AA
:1004500000F01F000126864032464FF00051204632
:10046000104B984715F0010F14BF666626660120F1
:10047000CAE705F0605200F01F01012605EA0603F5
:100480000093C5F38003B2F1605F14BF0022012224
:1004900006FA01F12046044CA0473046B4E700BFFD
:1004A0002B0340009B0240005D03400070B582B00A
:1004B00005460E46144602F0F043B3F1005F3DD00E
:1004C0000AD8B3F1805F21D0B3F1C05F2AD0B3F175
:1004D000006F0ED0002017E0B3F1405F3AD0B3F1C7
:1004E000605F37D0B3F1205FF4D1234B98470120F0
:1004F0000AE00A464FF00061204B984714F0010FC4
:1005000014BF6E662E66012002B070BD0A464FF021
:1005100080511A4B984714F0010F14BF6E662E6677
:100520000120F1E70A464FF0C051144B984714F0F0
:10053000010F14BF6E662E660120E5E70A464FF0F4
:1005400000510E4B984714F0010F14BF6E662E66D3
:100550000120D9E704F0605204F001030093C4F3D2
:100560008003B2F1605F14BF0022012231462846A9
:10057000034CA0470120C7E72B0340009B0240002B
:100580005D0340002DE9F84381460F46124B984722
:1005900005464846114B9847054013D0104C04F1CE
:1005A000600603E0B4420DD010345DB12068B8425B
:1005B000F8D161682942F5D0E3689847636825EA75
:1005C0000305EFE7074B1B6823B1074B1B680BB113
:1005D00048469847BDE8F8838303400087034000FE
:1005E00050040020C4040020C004002008B50B21E2
:1005F0000148024B984708BD000E0E40850540009B
:1006000008B50C210148024B984708BD00100E4068
:100610008505400008B50D210148024B984708BDEB
:1006200000120E4085054000174A136B23F070033B
:1006300018431063936E13F0080F0AD14FF4006350
:1006400011498A6E12F0080F03D1013BF9D1012044
:1006500070470D4A136B23F0030343F00203136347
:10066000936E13F0080F0AD14FF4006306498A6EA7
:1006700012F0080F05D1013BF9D10120704700208D
:1006800070470020704700BF00040E40C8B9114AEF
:10069000136A090289B223F45C1323F0030343F4C1
:1006A0005C1343F001030B431362936E13F0010FCD
:1006B000FBD0084A136A43F09B7343F48033136200
:1006C000704704490B6A044A1A40044B13430B62F7
:1006D000704700BF00040E40FCFFC8FE0200370157
:1006E000024B986E00F48030704700BF00040E404B
:1006F0004FF00052014B9A62704700BF00040E4059
:10070000024B986E00F00200704700BF00040E40DC
:1007100022281ED81F280CD8114B9A690123834028
:10072000934318D0012303FA00F00D4B1861002009
:10073000704720380A4BD3F80821012383409343A4
:100740000BD0012303FA00F0054BC3F80001002091
:10075000704701207047002070470020704700BF9D
:1007600000040E4010B489014318022444504FF095
:10077000FF319962196A5A6010BC704789010523DC
:100780004350704700EB8111CA61704700EB811143
:100790004A62704700EB8111086A7047F0B486B076
:1007A00002240194082402942024039480240494B5
:1007B0000A9CE40B0594B0EB510F14D84C0CA042EA
:1007C00017D2012501AF57F82540B1FBF4F4260CF0
:1007D00084420AD386420DD90135052DF3D100207C
:1007E00006B0F0BC70470020FAE70020F8E70120CF
:1007F000F6E700252AB106A901EB850151F8141C82
:100800001160002BF3D01D600120E9E7F0B48CB03B
:1008100007460E4601AC114D0FCD0FC40FCD0FC4CE
:1008200095E8070084E8070001AA002352F8040BAA
:10083000B6FBF0F0B0FBF7F0B0F5807F07D90133DD
:100840000B2BF3D14FF6FF700CB0F0BC70470A2BA6
:1008500094BF40EA03204FF6FF70F5E7A00F400079
:1008600070B506460D460C6844B1896820460C4BAD
:10087000984704464FF6FF7398420CD0686840B121
:10088000A968074B98474FF6FF73984205D044EA92
:10089000004434600024204670BD0446FBE700BFDE
:1008A0000D08400070B40A684B6803F00F038C8A8F
:1008B00023430C8923438C7A43EA44238C7D43EA07
:1008C0000443CC7D43EA44430C7E43EA844300EB7B
:1008D0004214C4F80032CB68C4F804320B69C4F87F
:1008E0000C328B7D3BB18C8B4B8B43EA044300EB8A
:1008F0004214C4F81832856C4FF001139340DB4367
:100900001D40CC7F04FA02F68C7F944044EA0644F2
:100910002C438464446C234091F8214004FA02F58E
:1009200091F82040944044EA054423434364012362
:10093000934091F822401CB3046A1C43046291F86E
:100940002440012C846E0CBF1C439C43846691F8A8
:100950002540012C846E0CBF44EA034324EA034380
:100960008366D200C46EFF23934024EA030491F807
:10097000233003FA02F22243C266002070BC7047A3
:10098000046A24EA03040462D9E70B69934202D2A1
:100990004FF6FF7070470B68CA6000EB4310C0F859
:1009A000082200207047012303FA01F141607047DB
:1009B000012303FA01F181607047FEE708B5214B7E
:1009C000214A9A4228D9214B1E4A9A420CD2013B15
:1009D0009B1A23F00303043313441B4951F8040BFF
:1009E00042F8040B9A42F9D100BF194B194A9A42B6
:1009F0000AD2013B9B1A23F0030304331344002162
:100A000042F8041B9A42FBD1134B144A9A60144BD0
:100A10009847144B9847FEE70A4B0B4A9A42E3D299
:100A20000A4B0848181A1146043A02440028DBD041
:100A3000C1F1040152F8040943F8040DCA42F9D186
:100A4000D2E700BF00000020F40F40003404002073
:100A5000140500203404002000ED00E000004000F8
:100A6000310E4000750C40003C4B1B6B03F0030340
:100A7000032B0ED8DFE803F0021C3838384B5B69D3
:100A800013F0800F14BF4FF400424FF4FA42354B7D
:100A90001A60324B1B6B03F07003702B55D02F4B39
:100AA0001A6B3049C2F302120B68D3400B607047D7
:100AB0002A4B1B6A13F0807F03D02B4A294B1A6004
:100AC000E7E72A4A274B1A60244B1B6A03F070039E
:100AD000102B05D0202BDCD1234A224B1A60D8E7FB
:100AE000234A204B1A60D4E71C4B1B6A13F0807F0B
:100AF00018D01D4A1B4B1A60184B1B6B03F00303E5
:100B0000022B164A07BF916A926AD16AD26A1548C7
:100B1000C1F30A41036801FB0333D2B2B3FBF2F322
:100B20000360B6E7114A0F4B1A600C4B1B6A03F0C7
:100B30007003102B05D0202BDED10B4A094B1A6015
:100B4000DAE70B4A074B1A60D6E7064A13680949E9
:100B5000A1FB03135B081360704700BF00040E4045
:100B600010140E4000000020001BB70000093D00DB
:100B700000127A00ABAAAAAA1A4B984214D91A4BAF
:100B8000984219D9194B98421DD9194B984221D92D
:100B9000184B984294BF4FF00423174B174A136029
:100BA00002F50072136070474FF08063134A1360C0
:100BB00002F5007213607047114B104A136002F582
:100BC0000072136070470F4B0C4A136002F50072FD
:100BD000136070470C4B094A136002F500721360F2
:100BE000704700BFFF2C3101FF596202FF8693035B
:100BF000FFB3C404FFE0F50500050004000A0E4041
:100C000000010004000200040003000408B50A48C3
:100C10000A4B984710F0200F00D108BD0648084B3A
:100C20009847084900230B60642202FB00F2120B74
:100C30000548064B9847F0E70080034097024000C4
:100C40008F024000C8040020000002408B094000D1
:100C500008B500210348044B98470448044B9847C3
:100C600008BD00BF004001409507400000800340E0
:100C70007F0240002DE9804887B04F4B98474F4B8B
:100C800098474FF0805113204D4CA0474FF08051B2
:100C90001420A0471F20DFF89491C847002149483D
:100CA000494CA04701214748A047484B03930024E3
:100CB0000494474E059603A94248464B9847464D33
:100CC0002C81AC724FF00B0BC5F804B04FF0640AE6
:100CD000C5F810A0EC602C6029463A483F4FB84751
:100CE0004FF480732B814FF0010885F80A80C5F816
:100CF00004B0C5F810A03223EB60C5F80080294687
:100D00003048B84721462F48354DA84741462D4821
:100D1000A8471D20C847334D0823334A3349284686
:100D2000334FB84743464FF4401221462846314FCF
:100D3000B84721462846304B9847052128462F4B77
:100D40009847202128462E4B984722462146284680
:100D50002C4B98472C4F87F81D434FF000533B60B6
:100D600028462A4B98471A20C847009602AB03AA88
:100D70003146C820264DA847264D029A42F48042AB
:100D800021462846244B9847039AB6FBF2F2234BA0
:100D9000A3FB0232920921462846214B9847102294
:100DA000214628461F4B98474FF080633B60214601
:100DB00028461D4B9847FEE7390140009D01400041
:100DC0008D03400000000240B109400080841E00F5
:100DD000000E270761084000C8040020A508400055
:100DE000A70940000080034000A86100001C4E0ECF
:100DF00011024000630240004502400085024000AD
:100E0000930240005502400000E100E07F024000F4
:100E10009D07400000400140650740001F85EB51E1
:100E2000850740008D0740007D0740001107400006
:100E300070B50F4E0F4D761BB61018BF002405D0AD
:100E4000013455F8043B9847A642F9D10A4E0B4DA0
:100E5000761B00F0BDF8B61018BF002406D0013490
:100E600055F8043B9847A642F9D170BD70BD00BF4C
:100E7000DC0F4000DC0F4000E40F4000DC0F4000BE
:100E8000024B13B1024800F005B8704700000000A3
:100E9000A10E4000002301461A46184600F01EB875
:100EA00038B50A4C0A4D641BA4100AD004F18043E3
:100EB000013B05EB8305013C55F804399847002CAC
:100EC000F9D1BDE8384000F08DB800BFF40F400004
:100ED000F00F4000704700BF704700BF2DE9F84396
:100EE0002C4D0646286898460F469146FFF7F2FFBC
:100EF000294B1C68D4F84831002B3ED05A681F2A71
:100F00001CDC02F1010E76B103EB82010124C1F871
:100F10008890D3F8880194402043022EC3F88801BA
:100F2000C1F8088123D00232C3F804E0286843F8EE
:100F30002270FFF7D1FF0020BDE8F883174B0BB3F9
:100F40004FF4C870AFF300800346D8B1D4F84821FD
:100F50000260002141600A46C4F848014FF0010ECA
:100F6000C0F88811C0F88C11002EDCD0CCE7D3F883
:100F70008C110C43C3F88C41D5E704F5A673C4F873
:100F80004831BBE72868FFF7A7FF4FF0FF30BDE807
:100F9000F88300BF30040020CC0F400000000000A8
:100FA0000100000002000000040000000800000032
:100FB0001000000020000000400000008000000041
:100FC00000010000000200000004000008000020F2
:100FD000F8B500BFF8BC08BC9E467047810E4000C3
:100FE000F1004000F8B500BFF8BC08BC9E46704751
:040FF000CD004000F0
:100FF40000093D000000000000000000F402002091
:101004005C030020C4030020000000000000000076
:1010140000000000000000000000000000000000CC
:1010240000000000000000000000000000000000BC
:1010340000000000000000000000000000000000AC
:10104400000000000000000000000000000000009C
:10105400000000000000000000000000000000008C
:10106400000000000000000000000000000000007C
:10107400000000000000000000000000000000006C
:10108400000000000000000000000000000000005C
:10109400000000000000000000000000000000004C
:1010A40001000000000000000E33CDAB34126DE6E9
:1010B400ECDE05000B000000000000000000000052
:1010C400000000000000000000000000000000001C
:1010D400000000000000000000000000000000000C
:1010E40000000000000000000000000000000000FC
:1010F40000000000000000000000000000000000EC
:04142400F0040020B0
:04000005004009BDF1
:00000001FF
